:100000000C94E1000C94FE000C94FE000C94FE0095
:100010000C94FE000C94FE000C94FE000C94FE0068
:100020000C94FE000C94FE000C94FE000C94FE0058
:100030000C94FE000C94FE000C94FE000C94FE0048
:100040000C94DE050C94FE000C94FE000C94FE0053
:100050000C94FE000C9400010C94FE000C94FE0025
:100060000C94FE000C94FE000C94FE000C94FE0018
:100070000C94FE000C94FE000C94FE000C94FE0008
:100080000C94FE000C94FE000C94FE00141313114B
:1000900011100F0E0E0D0C0B0B0A0A0909090808A6
:1000A000070706060606050505058040C020003046
:1000B000C00ECA2EE84CB2CA2200720898209EE6F2
:1000C00088D85AB8001468E0001468E00000000006
:1000D000050A14293F537D081020001E011E021E30
:1000E000031E041E051E061E071E081E091E0A1EEC
:1000F0000B1E0C1E0D1E0E1E0F1E101E111E121E9C
:10010000131E141E151E161E171E181E191E1A1E4B
:100110001B1E1C1E1D1E201E0001020304050607D7
:100120000809090C091E0E0A00000000000000006A
:1001300012121212120000000000000000090C0947
:100140000E1E0A07000204050704051E0202020231
:10015000020201010101010103000203021E11312B
:10016000110002040507080904070205200403041E
:10017000200A06090407200504051E0707070707CC
:1001800007090709070907080808010907090709F6
:10019000070808080203021E113111020702201E7F
:1001A000020201041D181D1E0808080B030B201E67
:1001B0000201020807141E01001D181D201E080858
:1001C000080511241FBECFEFD0E1DEBFCDBF11E087
:1001D000A0E0B1E0EAEAF9E102C005900D92AE3389
:1001E000B107D9F711E0AEE3B1E001C01D92A03F25
:1001F000B107E1F70E94CA0C0C94D30C0C940000D8
:100200001F920F920FB60F9211248F9384B1809397
:10021000E50185B18093E60181E0809399018F919A
:100220000F900FBE0F901F901895809151018F5F16
:10023000809351018031B9F41092510180914F01A6
:100240009091500101969093500180934F0121E0CD
:1002500020936A018230910531F42093BB01109202
:10026000500110924F010895833099F0843028F4A2
:10027000813041F08230D1F40AC0843061F08530A1
:10028000A9F40FC01092560110927501089581E0F3
:1002900003C082E001C083E0809356018093750122
:1002A000089584E0809356018093750108956093CA
:1002B0007601709377014093EB015093EC018093AA
:1002C000570160936F01709370016093C101709347
:1002D000C20140937101509372014093E801509321
:1002E000E901FB01849190E0FC01E457FF4FE491A8
:1002F000E093BC0182559F4FFC0184918093810162
:10030000FA01E491E0934601F0E0EF70F070E05301
:10031000FF4FE491E093EE0180917C01886080932F
:100320007C0180917C018F7E80937C0180917C0197
:1003300083FDFCCF0895962F92959F70492B8130B5
:10034000F1F4B99A6295607F72E015C09A01082EA7
:1003500002C0220F331F0A94E2F727FF02C0C19A9E
:1003600001C0C198000001968830910579F771505D
:1003700009F48DC0462F80E090E050E0E7CF823056
:10038000F1F4899A6295607F72E015C09A01082E97
:1003900002C0220F331F0A94E2F727FF02C0919A8E
:1003A00001C09198000001968830910579F771504D
:1003B00009F46DC0462F80E090E050E0E7CF833035
:1003C000F1F48D9A6295607F72E015C09A01082E53
:1003D00002C0220F331F0A94E2F727FF02C0959A4A
:1003E00001C09598000001968830910579F7715009
:1003F00009F44DC0462F80E090E050E0E7CF843014
:10040000E9F4119A6295607F72E014C09A01082E97
:1004100002C0220F331F0A94E2F727FF02C0199A85
:1004200001C01998000001968830910579F7715044
:1004300071F1462F80E090E050E0E8CF853039F54B
:10044000809164008860809364006295607F72E0B0
:100450001AC09A01082E02C0220F331F0A94E2F735
:1004600027FF04C020916500286003C0209165002B
:10047000277F20936500000001968830910549F799
:10048000715029F0462F80E090E050E0E2CF0895CF
:10049000CF93DF9380914601807F69F08091460180
:1004A00082958F70982F9D5890933D0193E7981BEC
:1004B00090933C0106C08DE780933D0189E68093CF
:1004C0003C019091120180913D01980F90933D0164
:1004D0008091120160913C01681B60933C01809106
:1004E0007C0183FF75C18091E70181508093E70112
:1004F000882329F48091EE0181508093EE01809150
:100500007C0184FFA7C080917C0180FF52C1809153
:100510007C0182FD18C080917C0181FF09C080911F
:10052000570140E00E949B0180917C018D7F09C0B2
:1005300080915701692F40E00E949B0180917C01CE
:10054000826080937C018091EE01882309F07CC059
:1005500080917C018B7F80937C0180915B018D3346
:1005600098F5C091C101D091C201CE01019690933E
:10057000C2018093C101A091E801B091E901CD01D0
:1005800001969093E9018093E801E981F0E0E45756
:10059000FF4FE491E093BC01E981F0E0E255FF4FA9
:1005A000E491E093810111968C911197809346011B
:1005B0001196EC911197F0E0EF70F070E053FF4F5F
:1005C000E491E093EE0105C080917C018F7E8093E1
:1005D0007C018091BC018038A1F480917C018F7EE8
:1005E00080937C0180917C01877F80937C01809146
:1005F000570163E740E00E949B0181E0809359012D
:10060000D3C0803409F4D0C08032D1F480917C0111
:1006100085FF0DC0E091E801F091E90180818F70C4
:1006200080934E0180917C018F7D80937C0180912D
:100630004E01882309F46DC0815080934E01B4C0EF
:10064000803C09F0B1C0A3C0E091C101F091C201AA
:10065000E081A4C080917C0180FFABC080917C01CF
:1006600082FD18C080917C0181FF09C080915701F3
:1006700040E00E949B0180917C018D7F09C08091A8
:100680005701692F40E00E949B0180917C018260AC
:1006900080937C018091EE01E091C101F091C20153
:1006A000882309F07AC03196F093C201E093C1012A
:1006B0008091E8019091E90101969093E90180937E
:1006C000E80120917C012B7F20937C01E4912E2F67
:1006D00030E0F901E457FF4F44914093BC012255AB
:1006E0003F4FF901249120938101FC018491809373
:1006F0004601E82FF0E0EF70F070E053FF4FE49117
:10070000E093EE01403889F480917C018F7E8093E4
:100710007C0180917C01877F80937C0180915701CF
:1007200063E740E00E949B013FC0403471F5909127
:100730006F01809170019093C1018093C20130914B
:100740007101209172013093E8012093E901E92FB2
:10075000F82F849190E0FC01E457FF4FE491E0937F
:10076000BC0182559F4FFC01849180938101E32F4E
:10077000F22FE491E0934601F0E0EF70F070E05367
:10078000FF4FE491E093EE010FC0403C69F480918B
:100790007C01846080937C0107C0E491F0E0E45721
:1007A000FF4FE491E093BC0180917C018E7F8093A8
:1007B0007C018091BC0181508093BC01813041F467
:1007C00080917C01816080937C018091810182BF56
:1007D000DF91CF9108951F93DF93CF9300D000D086
:1007E00000D0CDB7DEB710915C0180915D0180959E
:1007F000898380915E0190915F01FE01329627E02E
:1008000030E0A8E0B0E0498150E0BD01621B730B0D
:1008100002C0559547956A95E2F74083698170E07B
:10082000022E02C0660F771F0A94E2F7462B41930F
:10083000215030402230310531F72A81121711F44E
:100840009095891380E026960FB6F894DEBF0FBE10
:10085000CDBFCF91DF911F91089580B190E00090BE
:10086000750102C0959587950A94E2F780FF35C01F
:1008700080910D0185FF27C080910D0180618093DB
:100880000D0180910D018F7D80930D0180914D01AF
:10089000982F9350993030F480917B018F5F809333
:1008A0007B010FC08E3168F0AE9810925C011092FF
:1008B0005D0110925E0110925F011092440110924E
:1008C0007B0110924C0180914C018B3F18F48F5F9B
:1008D00080934C0110924D019EC080910D0184FFC8
:1008E00091C080910D01806280930D0180910D0176
:1008F0008F7E80930D0180914C01982F93509330FF
:1009000008F46CC0982F9650983108F075C080910B
:100910007B018930E0F430917B0120915C01315002
:1009200081E090E002C0880F991F3A95E2F7282BEA
:1009300020935C0180917B01883009F061C0809137
:100940005C018093540180910D01816052C08091BF
:100950007B018930A0F080917B01813180F430915E
:100960007B0120915D01395081E090E002C0880F49
:10097000991F3A95E2F7282B20935D0141C08091A1
:100980007B018131A0F080917B01893180F430912D
:100990007B0120915E01315181E090E002C0880F1F
:1009A000991F3A95E2F7282B20935E0129C0809188
:1009B0007B01893128F180917B01813208F53091EA
:1009C0007B0120915F01395181E090E002C0880FE6
:1009D000991F3A95E2F7282B20935F0180917B01C4
:1009E000803271F480915E018093EF0180910D015E
:1009F000806880930D0104C08E3110F010927B014D
:100A000010924D0180914D018B3F18F48F5F8093C0
:100A10004D0110924C0180914701882371F0809123
:100A20004701813029F480910D018F7780930D016A
:100A300080914701815080934701089580910D0175
:100A400086FF06C00E942D0480910D018F7B03C09C
:100A500080910D01806480930D010895BC9ABD9A28
:100A6000149ABE9ABF9A159A6130A9F4813019F48C
:100A7000C498C59A04C0882311F4C598C49A4093B9
:100A8000410180914101882319F04093410108956B
:100A9000C498C5980895623091F4813019F4C798CC
:100AA000C69A04C0882311F4C698C79A409342019D
:100AB00080914201882341F5C698C7980895633014
:100AC00041F5813019F4C498C59A04C0882311F403
:100AD000C598C49A4093410190914101992319F01E
:100AE0004093410102C0C498C598813019F4C79859
:100AF000C69A04C0882311F4C698C79A409342014D
:100B000080914201882319F0409342010895C698CC
:100B1000C7980895809143018F5F8093430190911E
:100B2000430180910C01981791F410924301809138
:100B3000410180933F018091420180934001809167
:100B40003F0181111C9A8091400181111D9A909161
:100B5000430180913F01981709F41C98909143013B
:100B600080914001981709F41D98089580914B01D8
:100B70008F5F80934B01803119F410924B010895DF
:100B80008E3011F4AE9A08958F30B9F480916001DF
:100B9000813029F483B38770809378010DC083B3CB
:100BA00090E08873907023E0959587952A95E1F7FA
:100BB0008095877080935501AE9808951F920F928B
:100BC0000FB60F9211242F933F934F935F936F9320
:100BD0007F938F939F93AF93BF93EF93FF938091F6
:100BE0005301882329F1109253010E941E050E948F
:100BF00048028091790190917A01009749F08091A3
:100C0000790190917A01019790937A01809379010B
:100C10008091BD019091BE01009719F18091BD01B5
:100C20009091BE0101979093BE018093BD0119C0C0
:100C300081E08093530180913E01813011F40E9444
:100C4000B60580915201882329F482E080935201F5
:100C50000E948A05809152018150809352010E9426
:100C6000150180917D0190917E01009749F080915E
:100C70007D0190917E01019790937E0180937D018B
:100C800080917D0190917E01FF91EF91BF91AF9195
:100C90009F918F917F916F915F914F913F912F9194
:100CA0000F900FBE0F901F90189520E130E00CC000
:100CB0004091BD015091BE0141155105C9F73093D6
:100CC000BE012093BD010197009791F7089580918F
:100CD000790190917A010097D1F780E190E09093AB
:100CE0007A0180937901089521E030E030937E010C
:100CF00020937D010CC040917D0150917E014115F2
:100D00005105C9F730937E0120937D01019700972B
:100D100091F70895CF93DF9320E130E030937A018B
:100D20002093790124E630E0829FE001839FD00D7B
:100D3000929FD00D112403C00E946706219720972F
:100D4000D9F7DF91CF9108958FEF809364008ABB2C
:100D5000109265001BBA08951F93CF93DF93182F4D
:100D600085E090E00E947406C5E6D0E084E08883C8
:100D700085E090E00E9474061BBB85E090E00E9435
:100D80007406188285E090E00E947406DF91CF918E
:100D90001F91089581E792E00E94740688E30E9403
:100DA000AC068FE390E00E94740688E30E94AC06D4
:100DB0008FE390E00E9474068CE00E94AC0686E00F
:100DC0000E94AC0681E00E94AC0681E00E94AC0665
:100DD00008951F93CF93DF93182F85E090E00E9432
:100DE0007406C5E6D0E085E0888385E090E00E9447
:100DF00074061BBB85E090E00E94740681E0888346
:100E000085E090E00E947406DF91CF911F910895D4
:100E10008295880F880F807C680F862F815C0E94E6
:100E2000AC060895DF93CF930F92CDB7DEB7498319
:100E30000E9408074981842F0E94E9060F90CF91F4
:100E4000DF910895EF92FF920F931F93DF93CF935B
:100E500000D0CDB7DEB749835A830E940807498185
:100E60005A818A0102C00E94E906F80181918F012E
:100E70008823C9F70F900F90CF91DF911F910F91A9
:100E8000FF90EF9008951F93823071F08330B1F09E
:100E9000813031F510E01F5F81E0612F40E20E9458
:100EA00012071830C1F71CC010E01F5F82E0612FED
:100EB00040E20E9412071830C1F712C010E01F5F15
:100EC00081E0612F40E20E9412071830C1F710E064
:100ED0001F5F82E0612F40E20E9412071830C1F7C5
:100EE0001F910895882311F48CE101C088E10E94CC
:100EF000AC060895CF93DF938330910509F43EC08B
:100F00008430910544F48130910571F0823091056F
:100F100009F082C01EC08430910509F444C08530B8
:100F2000910509F079C054C0B89AB99ABA9ABB9A97
:100F3000CCE2D1E0C19AC09A80E190E00E947406B0
:100F4000C198C09880E190E00E947406219791F7C3
:100F500063C0889A899A8A9A8B9ACCE2D1E0919A56
:100F6000909A80E190E00E9474069198909880E1B8
:100F700090E00E947406219791F74EC08C9A8D9A4A
:100F80008E9A8F9ACCE2D1E0959A949A80E190E083
:100F90000E9474069598949880E190E00E947406EF
:100FA000219791F739C0109A119A129A139ACCE2AC
:100FB000D1E0199A189A80E190E00E94740619987D
:100FC000189880E190E00E947406219791F724C060
:100FD0008091640088608093640080916500877FC1
:100FE00080936500179A1F98CCE2D1E0809165004C
:100FF0008860809365001F9A80E190E00E947406EB
:1010000080916500877F809365001F9880E190E064
:101010000E947406219751F7DF91CF91089589E9D5
:1010200086B917B881E0809399010895809199015C
:101030008823E1F310929901369A809199018823CF
:10104000E1F39091E6019295990F990F907C809130
:10105000E50186958695892B089583309105A9F041
:10106000843091053CF48130910559F0823091052E
:1010700091F409C08430910551F08530910559F4FF
:1010800008C017B808C081E005C082E003C083E053
:1010900001C084E087B90E941608843150F08F3176
:1010A00050F0813550F0893750F0873950F484E0A2
:1010B000089580E0089581E0089582E0089583E036
:1010C000089585E00895CF93DF9310926A011092FE
:1010D000BB0180E484BB8FEF85BB12BE81E083BF80
:1010E00087BF78940E94A4060E94CA0610926100ED
:1010F0000E940F08C3E3D1E081E061E0AE010E94ED
:10110000220782E061E0AE010E94220784E690E0BF
:101110000E947406DF91CF910895DF93CF930F92D1
:10112000CDB7DEB790E069830E942D0891E0698118
:10113000861708F490E0892F0F90CF91DF910895E2
:101140001F93162F0E94340180910D0187FF07C065
:101150000E94EB03982F83E08093470101C090E049
:1011600081E0911380E01F9108951F93182F8091C3
:101170006A01882339F086E087B90E941608982F03
:1011800010926A0181E0911708F480E01F910895A0
:1011900091E090933E0180936001813031F4909111
:1011A0007801961739F080E0089581E0909155011B
:1011B000961380E008951F93162F10BC833091F191
:1011C000843030F4813051F0823009F088C018C08A
:1011D0008430E1F1853009F082C04CC0B898B998EC
:1011E000BA98C09AC19AC29A81E090E00E945506CE
:1011F00086B380FF5BC086B381FF5EC086B337C015
:10120000889889988A98909A919A929A81E090E029
:101210000E94550680B380FF49C080B381FF4CC057
:1012200080B325C08C988D988E98949A959A969AAA
:1012300081E090E00E94550680B384FF37C080B300
:1012400085FF3AC080B386FD3FC03CC0109811981E
:101250001298189A199A1A9A81E090E00E945506FD
:1012600081B180FF23C081B181FF26C081B182FDA1
:101270002BC028C0179880916400877F80936400FA
:10128000809164008F7E809364001F9A8091650036
:10129000886080936500809165008061809365001F
:1012A00081E090E00E9455060F9902C08EEF0DC0BC
:1012B0008091630083FD02C08DEF07C080916300C1
:1012C00084FD02C08BEF01C08FEF80934A019091A3
:1012D0004A019095977090934A0181E0911380E0C4
:1012E0001F910895833021F1843030F4813051F022
:1012F000823009F055C011C0843029F1853009F0E1
:101300004FC02CC0B898C098BB9AC39A86B380FFD0
:1013100002C0C39838C0C39A41C0889890988B9AED
:10132000939A80B380FF02C093982DC0939A36C0E1
:101330008C9894988F9A979A80B384FF02C097985C
:1013400022C0979A2BC010981898139A1B9A81B1B3
:1013500080FF02C01B9817C01B9A20C017981F98C7
:101360008091610080628093610080916200806260
:101370008093620081B18078803859F48091620056
:101380008F7D8093620081E090E00E94550681E0AD
:1013900008958091620080628093620080E00895E9
:1013A00008959CEF94BB9FEF95BB23B391E0281366
:1013B00090E0892F0895DF92EF92FF920F931F9391
:1013C000CF93DF93D82EC0E0D0E0062F10E0780155
:1013D0000894E108F1080CC08D2D90E00E947A0776
:1013E000CE15DF0541F088E592E00E945506219672
:1013F000C017D1078CF3DF91CF911F910F91FF9010
:10140000EF90DF900895EF92FF920F931F93CF9389
:10141000DF938C01EB0150914801F0904901FC01F0
:1014200090E001C0982F8191882321F49093480186
:1014300080E006C0892F8F5F8930A1F7F7CF822F18
:10144000FE01E80FF11D2081222329F48093490138
:1014500060E040E017C0282F2F5F293081F7F6CFDA
:10146000242F30E0F801E20FF31F7081F901EE57ED
:10147000FE4FE081E71709F46F5F2E573E4FF901E9
:1014800070834F5F491760F3E1E6F1E0DE0190E021
:101490008E0F9F1FEE2406C02D913081321709F464
:1014A000E3942193E817F907B9F7651731F081E064
:1014B00061E043E351E00E94220781E061E0A8017E
:1014C0000E942207EF1431F082E061E043E351E033
:1014D0000E94220782E061E0AE010E942207DF91B4
:1014E000CF911F910F91FF90EF900895882319F4E9
:1014F000822F0E942E050895833009F45FC0843046
:1015000030F4813059F0823009F0EEC02FC08430C1
:1015100009F47EC0853009F0E7C0A2C0B89AB99A34
:10152000BA9ABB9A80E090E021E030E0462F41700B
:101530006695413061F478B3A901082E02C0440FCA
:10154000551F0A94E2F74095472348BB0AC078B379
:10155000A901082E02C0440F551F0A94E2F7742B0C
:1015600078BB01968430910509F70895889A899A85
:101570008A9A8B9A80E090E021E030E0462F41701B
:101580006695413061F472B3A901082E02C0440F80
:10159000551F0A94E2F74095472342BB0AC072B335
:1015A000A901082E02C0440F551F0A94E2F7742BBC
:1015B00072BB01968430910509F708958C9A8D9A33
:1015C0008E9A8F9A80E090E021E030E0762F717063
:1015D0006695AC014C5F5F4F713061F472B3F901F5
:1015E00002C0EE0FFF1F4A95E2F7AF014095472377
:1015F00042BB09C072B3F90102C0EE0FFF1F4A954A
:10160000E2F77E2B72BB019684309105F9F60895BE
:10161000109A119A129A139A80E090E021E030E03B
:10162000462F41706695413061F473B1A901082ECF
:1016300002C0440F551F0A94E2F74095472343B96F
:101640000AC073B1A901082E02C0440F551F0A94A5
:10165000E2F7742B73B901968430910509F7089568
:10166000179A809164008860809364008091640080
:10167000806180936400809161008062809361004A
:1016800080E0962F917066958230A1F08330F1F062
:10169000813031F0913011F41F9823C01F9A21C07E
:1016A000913021F490916500977F0DC09091650075
:1016B000986009C0913021F4909165009F7E03C02D
:1016C000909165009061909365000BC0913021F47A
:1016D000909162009F7D03C0909162009062909310
:1016E00062008F5F843069F60895653091F166304D
:1016F00070F46230F9F0633020F4613009F04AC0D0
:1017000014C06330E1F0643009F044C01DC068309B
:1017100079F1693028F4663009F16730D9F523C0D2
:10172000693059F16A30B1F52FC062E271E040E3EF
:1017300051E027C06DE371E04CE451E022C06AE55E
:1017400071E04EE551E01DC061E671E04BE751E00C
:1017500018C064E971E048E951E013C06BE971E039
:1017600040EA51E00EC064EA71E048EA51E009C085
:101770006BEA71E040EB51E004C064EB71E047EBD1
:1017800051E00E945701089569EB71E04EEB51E082
:101790000E945701089560937601709377014093FA
:1017A000EB015093EC018093570160936F017093AC
:1017B00070016093C1017093C20140937101509315
:1017C00072014093E8015093E901FB01849190E09C
:1017D000FC01E457FF4FE491E093BC0182559F4F19
:1017E000FC01849180938101FA01E491E093460128
:1017F000F0E0EF70F070E053FF4FE491E093EE0102
:1018000080917C01886080937C0180917C018F7E37
:1018100080937C0180917C0183FDFCCF0895E62FAD
:10182000F0E0ED5DFE4F2081833009F447C0843045
:1018300030F4813059F0823009F0ABC023C08430DD
:1018400009F458C0853009F0A4C070C0B89AB99A9C
:10185000BA9AC29880E090E030E0A901082E02C058
:10186000440F551F0A94E2F747FF02C0C09A01C017
:10187000C0980000C19AC19801968830910569F717
:10188000C29A0895889A899A8A9A929880E090E0FC
:1018900030E0A901082E02C0440F551F0A94E2F758
:1018A00047FF02C0909A01C090980000919A9198C9
:1018B00001968830910569F7929A08958C9A8D9ACD
:1018C0008E9A969880E090E030E0A901082E02C040
:1018D000440F551F0A94E2F747FF02C0949A01C0D3
:1018E00094980000959A959801968830910569F72B
:1018F000969A0895109A119A129A1A9880E090E098
:1019000030E0A901082E02C0440F551F0A94E2F7E7
:1019100047FF02C0189A01C018980000199A199838
:1019200001968830910569F71A9A0895179A80915F
:10193000640088608093640080916400806180937B
:101940006400809165008F7E8093650080E090E068
:1019500030E0A901082E02C0440F551F0A94E2F797
:1019600047FF02C01F9A01C01F9800004091650008
:1019700048604093650040916500477F4093650053
:1019800001968830910529F78091650080618093E8
:10199000650008950E94630880E091E066E071E0D0
:0A19A0000E94030A0895F894FFCF97
:1019AA0068656C6C6F00776F726C64001110CC33D1
:1019BA00F00F0ADE18CD5D1B57D71EDF5F9FD3C11C
:1019CA00D9CF8748EB8C892B19184B08090A385C40
:0E19DA00A81C1E202020202020202000020219
:00000001FF
